{
  "contractName": "HashPuppies",
  "abi": [
    {
      "inputs": [],
      "payable": false,
      "stateMutability": "nonpayable",
      "type": "constructor"
    },
    {
      "anonymous": false,
      "inputs": [
        {
          "indexed": false,
          "internalType": "uint256",
          "name": "id",
          "type": "uint256"
        },
        {
          "indexed": false,
          "internalType": "string",
          "name": "name",
          "type": "string"
        },
        {
          "indexed": false,
          "internalType": "uint256",
          "name": "price",
          "type": "uint256"
        },
        {
          "indexed": false,
          "internalType": "address payable",
          "name": "owner",
          "type": "address"
        },
        {
          "indexed": false,
          "internalType": "bool",
          "name": "purchased",
          "type": "bool"
        }
      ],
      "name": "PuppyCreated",
      "type": "event"
    },
    {
      "anonymous": false,
      "inputs": [
        {
          "indexed": false,
          "internalType": "uint256",
          "name": "id",
          "type": "uint256"
        },
        {
          "indexed": false,
          "internalType": "string",
          "name": "name",
          "type": "string"
        },
        {
          "indexed": false,
          "internalType": "uint256",
          "name": "price",
          "type": "uint256"
        },
        {
          "indexed": false,
          "internalType": "address payable",
          "name": "owner",
          "type": "address"
        },
        {
          "indexed": false,
          "internalType": "bool",
          "name": "purchased",
          "type": "bool"
        }
      ],
      "name": "PuppyPurchased",
      "type": "event"
    },
    {
      "constant": true,
      "inputs": [],
      "name": "name",
      "outputs": [
        {
          "internalType": "string",
          "name": "",
          "type": "string"
        }
      ],
      "payable": false,
      "stateMutability": "view",
      "type": "function"
    },
    {
      "constant": true,
      "inputs": [
        {
          "internalType": "uint256",
          "name": "",
          "type": "uint256"
        }
      ],
      "name": "puppies",
      "outputs": [
        {
          "internalType": "uint256",
          "name": "id",
          "type": "uint256"
        },
        {
          "internalType": "string",
          "name": "name",
          "type": "string"
        },
        {
          "internalType": "uint256",
          "name": "price",
          "type": "uint256"
        },
        {
          "internalType": "address payable",
          "name": "owner",
          "type": "address"
        },
        {
          "internalType": "bool",
          "name": "purchased",
          "type": "bool"
        }
      ],
      "payable": false,
      "stateMutability": "view",
      "type": "function"
    },
    {
      "constant": true,
      "inputs": [],
      "name": "puppiesCount",
      "outputs": [
        {
          "internalType": "uint256",
          "name": "",
          "type": "uint256"
        }
      ],
      "payable": false,
      "stateMutability": "view",
      "type": "function"
    },
    {
      "constant": false,
      "inputs": [
        {
          "internalType": "string",
          "name": "_name",
          "type": "string"
        },
        {
          "internalType": "uint256",
          "name": "_price",
          "type": "uint256"
        }
      ],
      "name": "createPuppy",
      "outputs": [],
      "payable": false,
      "stateMutability": "nonpayable",
      "type": "function"
    },
    {
      "constant": false,
      "inputs": [
        {
          "internalType": "uint256",
          "name": "_id",
          "type": "uint256"
        }
      ],
      "name": "purchasePuppy",
      "outputs": [],
      "payable": true,
      "stateMutability": "payable",
      "type": "function"
    }
  ],
  "bytecode": "0x6080604052600060015534801561001557600080fd5b506040518060400160405280600b81526020017f486173685075707069657300000000000000000000000000000000000000000081525060009080519060200190610061929190610067565b5061010c565b828054600181600116156101000203166002900490600052602060002090601f016020900481019282601f106100a857805160ff19168380011785556100d6565b828001600101855582156100d6579182015b828111156100d55782518255916020019190600101906100ba565b5b5090506100e391906100e7565b5090565b61010991905b808211156101055760008160009055506001016100ed565b5090565b90565b610beb8061011b6000396000f3fe60806040526004361061004a5760003560e01c806306fdde031461004f5780635f01a4f7146100df578063aebf749c1461010d578063d1287b6f1461020d578063d4ae8d2f14610238575b600080fd5b34801561005b57600080fd5b5061006461030a565b6040518080602001828103825283818151815260200191508051906020019080838360005b838110156100a4578082015181840152602081019050610089565b50505050905090810190601f1680156100d15780820380516001836020036101000a031916815260200191505b509250505060405180910390f35b61010b600480360360208110156100f557600080fd5b81019080803590602001909291905050506103a8565b005b34801561011957600080fd5b506101466004803603602081101561013057600080fd5b81019080803590602001909291905050506107b7565b60405180868152602001806020018581526020018473ffffffffffffffffffffffffffffffffffffffff1673ffffffffffffffffffffffffffffffffffffffff16815260200183151515158152602001828103825286818151815260200191508051906020019080838360005b838110156101ce5780820151818401526020810190506101b3565b50505050905090810190601f1680156101fb5780820380516001836020036101000a031916815260200191505b50965050505050505060405180910390f35b34801561021957600080fd5b506102226108b2565b6040518082815260200191505060405180910390f35b34801561024457600080fd5b506103086004803603604081101561025b57600080fd5b810190808035906020019064010000000081111561027857600080fd5b82018360208201111561028a57600080fd5b803590602001918460018302840111640100000000831117156102ac57600080fd5b91908080601f016020809104026020016040519081016040528093929190818152602001838380828437600081840152601f19601f820116905080830192505050505050509192919290803590602001909291905050506108b8565b005b60008054600181600116156101000203166002900480601f0160208091040260200160405190810160405280929190818152602001828054600181600116156101000203166002900480156103a05780601f10610375576101008083540402835291602001916103a0565b820191906000526020600020905b81548152906001019060200180831161038357829003601f168201915b505050505081565b6103b0610aca565b600260008381526020019081526020016000206040518060a001604052908160008201548152602001600182018054600181600116156101000203166002900480601f0160208091040260200160405190810160405280929190818152602001828054600181600116156101000203166002900480156104715780601f1061044657610100808354040283529160200191610471565b820191906000526020600020905b81548152906001019060200180831161045457829003601f168201915b50505050508152602001600282015481526020016003820160009054906101000a900473ffffffffffffffffffffffffffffffffffffffff1673ffffffffffffffffffffffffffffffffffffffff1673ffffffffffffffffffffffffffffffffffffffff1681526020016003820160149054906101000a900460ff1615151515815250509050600081600001511180156105115750600154816000015111155b61051a57600080fd5b806040015134101561052b57600080fd5b80608001511561053a57600080fd5b6000816060015190503373ffffffffffffffffffffffffffffffffffffffff168173ffffffffffffffffffffffffffffffffffffffff16141561057c57600080fd5b33826060019073ffffffffffffffffffffffffffffffffffffffff16908173ffffffffffffffffffffffffffffffffffffffff1681525050600182608001901515908115158152505081600260008581526020019081526020016000206000820151816000015560208201518160010190805190602001906105ff929190610b11565b506040820151816002015560608201518160030160006101000a81548173ffffffffffffffffffffffffffffffffffffffff021916908373ffffffffffffffffffffffffffffffffffffffff16021790555060808201518160030160146101000a81548160ff0219169083151502179055509050508073ffffffffffffffffffffffffffffffffffffffff166108fc349081150290604051600060405180830381858888f193505050501580156106ba573d6000803e3d6000fd5b507f2ea7d379f6b417221c78d4ab8fbebb946fee7d5ce4b57bcafc80c971ca63ee026001548360200151846040015133600160405180868152602001806020018581526020018473ffffffffffffffffffffffffffffffffffffffff1673ffffffffffffffffffffffffffffffffffffffff16815260200183151515158152602001828103825286818151815260200191508051906020019080838360005b83811015610774578082015181840152602081019050610759565b50505050905090810190601f1680156107a15780820380516001836020036101000a031916815260200191505b50965050505050505060405180910390a1505050565b6002602052806000526040600020600091509050806000015490806001018054600181600116156101000203166002900480601f0160208091040260200160405190810160405280929190818152602001828054600181600116156101000203166002900480156108695780601f1061083e57610100808354040283529160200191610869565b820191906000526020600020905b81548152906001019060200180831161084c57829003601f168201915b5050505050908060020154908060030160009054906101000a900473ffffffffffffffffffffffffffffffffffffffff16908060030160149054906101000a900460ff16905085565b60015481565b60008251116108c657600080fd5b600081116108d357600080fd5b6001600081548092919060010191905055506040518060a0016040528060015481526020018381526020018281526020013373ffffffffffffffffffffffffffffffffffffffff16815260200160001515815250600260006001548152602001908152602001600020600082015181600001556020820151816001019080519060200190610962929190610b11565b506040820151816002015560608201518160030160006101000a81548173ffffffffffffffffffffffffffffffffffffffff021916908373ffffffffffffffffffffffffffffffffffffffff16021790555060808201518160030160146101000a81548160ff0219169083151502179055509050507f9701b32ce5d11b09ee1879ac8ccee948c02dfa07cdf3fddf4cefc69888431ff5600154838333600060405180868152602001806020018581526020018473ffffffffffffffffffffffffffffffffffffffff1673ffffffffffffffffffffffffffffffffffffffff16815260200183151515158152602001828103825286818151815260200191508051906020019080838360005b83811015610a88578082015181840152602081019050610a6d565b50505050905090810190601f168015610ab55780820380516001836020036101000a031916815260200191505b50965050505050505060405180910390a15050565b6040518060a00160405280600081526020016060815260200160008152602001600073ffffffffffffffffffffffffffffffffffffffff1681526020016000151581525090565b828054600181600116156101000203166002900490600052602060002090601f016020900481019282601f10610b5257805160ff1916838001178555610b80565b82800160010185558215610b80579182015b82811115610b7f578251825591602001919060010190610b64565b5b509050610b8d9190610b91565b5090565b610bb391905b80821115610baf576000816000905550600101610b97565b5090565b9056fea265627a7a723158209fba19b09c70dc225d6c49451ed945fb5ed28b560c1175badd57b7234df9673464736f6c63430005100032",
  "source": "pragma solidity ^0.5.0;\n\ncontract HashPuppies {\n    string public name;\n    uint256 public puppiesCount = 0;\n\n    mapping(uint256 => Puppy) public puppies;\n\n    struct Puppy {\n        uint256 id;\n        string name;\n        uint256 price;\n        address payable owner;\n        bool purchased;\n    }\n\n    constructor() public {\n        name = \"HashPuppies\";\n    }\n\n    event PuppyPurchased(\n        uint256 id,\n        string name,\n        uint256 price,\n        address payable owner,\n        bool purchased\n    );\n\n    event PuppyCreated(\n        uint256 id,\n        string name,\n        uint256 price,\n        address payable owner,\n        bool purchased\n    );\n\n    function createPuppy(string memory _name, uint256 _price) public {\n        // Make sure parameters are correct\n        require(bytes(_name).length > 0);\n        require(_price > 0);\n        // Increment puppy count\n        puppiesCount++;\n        // Create the puppy\n        puppies[puppiesCount] = Puppy(\n            puppiesCount,\n            _name,\n            _price,\n            msg.sender,\n            false\n        );\n        // Trigger an event\n        emit PuppyCreated(puppiesCount, _name, _price, msg.sender, false);\n    }\n\n    function purchasePuppy(uint256 _id) public payable {\n        // Fetch the puppy\n        Puppy memory _puppy = puppies[_id];\n        // Make sure the puppy is valid\n        require(_puppy.id > 0 && _puppy.id <= puppiesCount);\n        // Require that there is enough ether in the transaction\n        require(msg.value >= _puppy.price);\n        // Require that the product has not been purchased already\n        require(!_puppy.purchased);\n        // Fetch the owner\n        address payable _seller = _puppy.owner;\n        // Require that buyer is not the seller\n        require(_seller != msg.sender);\n        // Transfer ownership to buyer\n        _puppy.owner = msg.sender;\n        // Mark as purchased\n        _puppy.purchased = true;\n        // Update the puppy\n        puppies[_id] = _puppy;\n        // Pay the seller by sending ether\n        address(_seller).transfer(msg.value);\n        // Trigger an event\n        emit PuppyPurchased(\n            puppiesCount,\n            _puppy.name,\n            _puppy.price,\n            msg.sender,\n            true\n        );\n    }\n}\n",
  "sourcePath": "/Users/pushpitbhardwaj/Desktop/h4CK3R/blockchain/hashpuppies/src/contracts/HashPuppies.sol",
  "compiler": {
    "name": "solc",
    "version": "0.5.16+commit.9c3226ce.Emscripten.clang"
  },
  "schemaVersion": "3.0.23",
  "updatedAt": "2021-05-17T02:15:27.479Z",
  "networkType": "ethereum",
  "devdoc": {
    "methods": {}
  },
  "userdoc": {
    "methods": {}
  }
}